S01B00006973655F6D6F746F725F6472697665725F69702E7372656315
S11300000C9434000C9451000C9451000C94510045
S11300100C9417010C9451000C9451000C94510051
S11300200C9451000C9451000C9451000C94510008
S11300300C9451000C9451000C9451000C945100F8
S11300400C9451000C9451000C9451000C945100E8
S11300500C9451000C9451000C9451000C945100D8
S11300600C949F000C94510011241FBECFEFD8E0D4
S1130070DEBFCDBF11E0A0E0B1E0EAE2FAE002C0E9
S113008005900D92A430B107D9F725E0A4E0B1E0C2
S113009001C01D92A631B207E1F70E9483010C94BE
S11300A013050C940000909307018093060170934C
S11300B00501609304010895F894880F8093BA00B1
S11300C084EC8093BC0078940895ECEBF0E080819C
S11300D08823ECF78091B900887F803849F018F4C0
S11300E0882319F128C0883A71F0883BA9F023C00D
S11300F08091BB00E0910601F0910701099584EC21
S11301008093BC000895E0910401F09105010995E4
S113011084EC8093BC000895E0910401F091050102
S1130120099584EC8093BC000895ECEBF0E0108218
S113013084EC8083089584EC8093BC0008951F921E
S11301400F920FB60F9211242F933F934F935F9307
S11301506F937F938F939F93AF93BF93EF93FF938B
S11301608091B900887F803849F018F4882319F108
S113017028C0883A71F0883BA9F023C08091BB0065
S1130180E0910601F0910701099585EC8093BC008C
S11301901BC0E0910401F0910501099585EC809361
S11301A0BC0012C0E0910401F0910501099585ECB1
S11301B08093BC0009C0ECEBF0E0108285EC8083F6
S11301C003C085EC8093BC00FF91EF91BF91AF9188
S11301D09F918F917F916F915F914F913F912F915B
S11301E00F900FBE0F901F9018950E9403020E945B
S11301F09001089540910A0150910B0160910C0106
S113020070910D017F936F935F934F9320E031E0E2
S11302103F932F939F938F930E9429028DB79EB78C
S113022008960FB6F8949EBF0FBE8DBF08957894BC
S11302301F920F920FB60F9211242F933F934F9357
S11302405F938F939F93AF93BF9356B146B1252F7E
S1130250217030E041FB882780F990E028173907A6
S1130260A1F080910A0190910B01A0910C01B09131
S11302700D010197A109B10980930A0190930B0123
S1130280A0930C01B0930D0113C080910A019091C9
S11302900B01A0910C01B0910D010196A11DB11D9E
S11302A080930A0190930B01A0930C01B0930D016C
S11302B0BF91AF919F918F915F914F913F912F91FA
S11302C00F900FBE0F901F901895E8E6F0E0808124
S11302D082608083ECE6F0E08081816080830E940C
S11302E0880180910801909109010E94900117B83A
S11302F018B88BB18BB94AEF50E065EF70E080E439
S11303000E94CE0108950E9465010E946500FDCF00
S11303108AB1806E8AB983EA84BD82E085BD08957E
S11303209C01992324F422273327281B390B220FFD
S1130330331F27BD28BD992314F45F980895181618
S113034019060CF45F9A089580911001909111019F
S1130350892B39F4E0911201F091130186E191E0C7
S11303600995E0911001F0911101EA5EFE4F808140
S1130370811108C084E28093BB0010921101109295
S1130380100108958093BB00809110019091110198
S113039001969093110180931001089570931501B3
S11303A06093140150931301409312010E945C0066
S11303B064EA71E085EE91E00E9453000895E091B3
S11303C01401F09115010995089520910E013091C1
S11303D00F01F901EA5EFC4F8083843269F4F9016C
S11303E0EA5EFC4F108286E193E00E94DF011092E6
S11303F00F0110920E0108952F5F3F4F30930F01AC
S113040020930E010895FC0188279927E8942191EF
S11304102032E9F3293010F02E30C8F32B3241F0AA
S11304202D3239F4689404C00E942102820F911D78
S1130430219120532A30C0F31EF4909581959F4F4B
S113044008957AE0979F902D879F802D910D112418
S11304500895AEE0B0E0EFE2F2E00C94EA040D8916
S11304601E8986E08C831A8309838FEF9FE79E831E
S11304708D83AE01475E5F4F6F89788DCE01019603
S11304800E944B02EF81F885E00FF11F10822E9637
S1130490E4E00C940605ABE0B0E0E1E5F2E00C9496
S11304A0DC046C017B018A01FC01178216828381C2
S11304B081FFCCC1CE0101963C01F6019381F70185
S11304C093FD859193FF81917F01882309F4BAC13B
S11304D0853239F493FD859193FF81917F018532B3
S11304E029F4B60190E00E944204E7CF912C212C1C
S11304F0312CFFE1F315D8F08B3279F038F48032E7
S113050079F08332A1F4232D20611DC08D3261F076
S1130510803369F4232D216016C0832D8260382E28
S1130520E32DE4603E2E2AC0F32DF8601DC037FC95
S11305302DC020ED280F2A3040F08E32B9F436FC5D
S113054081C1232D2064322E19C036FE06C08AE0F4
S1130550989E200D1124922E11C0EAE02E9E200DAB
S11305601124222EF32DF0623F2E08C08C3621F484
S1130570832D8068382E02C0883641F4F70193FD3C
S1130580859193FF81917F018111B3CF982F9F7D36
S11305909554933028F40C5F1F4F9FE399830DC04B
S11305A0833631F0833771F0833509F059C021C0A7
S11305B0F801808189830E5F1F4F88248394912CD6
S11305C0530113C02801F2E04F0E511CF801A08022
S11305D0B18036FE03C0692D70E002C06FEF7FEF7B
S11305E0C5010E9437044C018201F32DFF773F2E91
S11305F016C0280122E0420E511CF801A080B180EF
S113060036FE03C0692D70E002C06FEF7FEFC501B5
S11306100E942C044C01F32DF0683F2E820133FC20
S11306201BC0822D90E088169906B0F4B60180E2D2
S113063090E00E9442042A94F4CFF50137FC85919E
S113064037FE81915F01B60190E00E9442042110BF
S11306502A9421E0821A91088114910471F7E8C068
S1130660843611F0893641F5F80137FE07C0608100
S11306707181828193810C5F1F4F08C060817181F9
S1130680072E000C880B990B0E5F1F4FF32DFF767E
S11306903F2E97FF09C090958095709561957F4F87
S11306A08F4F9F4FF0683F2E2AE030E0A3010E9455
S11306B07E04882E861845C0853731F4232D2F7E7D
S11306C0B22E2AE030E025C0932D997FB92E8F36C3
S11306D0C1F018F4883579F0B5C0803719F088373F
S11306E021F0B0C0E92FE061BE2EB4FE0DC0FB2D99
S11306F0F460BF2E09C034FE0AC0292F2660B22E32
S113070006C028E030E005C020E130E002C020E16E
S113071032E0F801B7FE07C0608171818281938164
S11307200C5F1F4F06C06081718180E090E00E5F16
S11307301F4FA3010E947E04882E8618FB2DFF778D
S11307403F2E36FE0DC0232D2E7FA22E891458F481
S113075034FE0BC032FC09C0832D8E7EA82E05C04A
S1130760B82CA32C03C0B82C01C0B92CA4FE0FC014
S1130770FE01E80DF11D8081803321F49A2D997ECC
S1130780A92E09C0A2FE06C0B394B39404C08A2D56
S1130790867809F0B394A3FC11C0A0FE06C0B2147D
S11307A088F4280C922C9B180EC0B21460F4B60185
S11307B080E290E00E944204B394F7CFB21418F49C
S11307C02B1802C0982C212CA4FE10C0B60180E383
S11307D090E00E944204A2FE17C0A1FC03C088E777
S11307E090E002C088E590E0B6010CC08A2D8678BE
S11307F059F0A1FE02C08BE201C080E2A7FC8DE2A9
S1130800B60190E00E944204891438F4B60180E3F2
S113081090E00E9442049A94F7CF8A94F301E80D81
S1130820F11D8081B60190E00E9442048110F5CF51
S1130830222009F442CEB60180E290E00E944204F4
S11308402A94F6CFF6018681978102C08FEF9FEF3D
S11308502B96E2E10C94F804FC0105906150704081
S11308600110D8F7809590958E0F9F1F0895FC0175
S11308706150704001900110D8F7809590958E0FCB
S11308809F1F08950F931F93CF93DF93FB01238141
S113089021FD03C08FEF9FEF2CC022FF16C04681BD
S11308A05781248135814217530744F4A081B181D3
S11308B09D012F5F3F4F318320838C9326813781A5
S11308C02F5F3F4F3783268314C08B01EC01FB015C
S11308D00084F185E02D0995892BE1F6D80116965F
S11308E08D919C911797019617969C938E931697CA
S11308F0CE01DF91CF911F910F910895FA01AA279C
S1130900283051F1203181F1E8946F936E7F6E5F4E
S11309107F4F8F4F9F4FAF4FB1E03ED0B4E03CD0FC
S1130920670F781F891F9A1FA11D680F791F8A1FDF
S1130930911DA11D6A0F711D811D911DA11D20D046
S113094009F468943F912AE0269F11243019305D00
S11309503193DEF6CF010895462F4770405D4193F1
S1130960B3E00FD0C9F7F6CF462F4F70405D4A333E
S113097018F0495D31FD4052419302D0A9F7EACF06
S1130980B4E0A6959795879577956795BA95C9F735
S113099000976105710508959B01AC010A2E069428
S11309A05795479537952795BA95C9F7620F731FE1
S11309B0841F951FA01D08952F923F924F925F921E
S11309C06F927F928F929F92AF92BF92CF92DF925B
S11309D0EF92FF920F931F93CF93DF93CDB7DEB7C0
S11309E0CA1BDB0B0FB6F894DEBF0FBECDBF099454
S11309F02A88398848885F846E847D848C849B84AB
S1130A00AA84B984C884DF80EE80FD800C811B81B8
S1130A10AA81B981CE0FD11D0FB6F894DEBF0FBEE7
S10D0A20CDBFED010895F894FFCF57
S1070A2A256C6400CF
S9030000FC
