S00D0000747263656D2E73726563FC
S11300000C9434000C9446000C9446000C94480064
S11300100C9446000C9446000C9446000C94460044
S11300200C9446000C9446000C9446000C94460034
S11300300C9446000C9446000C9446000C94460024
S11300400C9446000C9446000C9446000C94460014
S11300500C9446000C9446000C9446000C94460004
S11300600C9446000C94460011241FBECFEFD8E038
S1130070DEBFCDBF21E0A0E0B1E001C01D92A430FD
S1130080B207E1F70E949D000C9436010C94000025
S11300901F920F920FB60F9211248F939F93AF93D9
S11300A0BF9393B189B1892780FF14C08091000167
S11300B090910101A0910201B09103010197A1095E
S11300C0B1098093000190930101A0930201B093C0
S11300D0030113C08091000190910101A0910201DC
S11300E0B09103010196A11DB11D8093000190936D
S11300F00101A0930201B0930301BF91AF919F91BD
S11301008F910F900FBE0F901F90189510920001C1
S113011010920101109202011092030117B818B84D
S11301201AB81BB8E8E6F0E0808181608083EBE6D2
S1130130F0E08081816080830895CF93DF931F92E4
S1130140CDB7DEB70E9486007894CE0101960E9456
S1130150B70060E1CE0101960E94B80048E050E08B
S113016060E071E0CE0101960E94C300F7CF0895CC
S113017082E08093B8008093B900660F6093BA0060
S113018080E090E00895EF92FF920F931F93CF9336
S1130190DF93CDB7DEB728970FB6F894DEBF0FBE56
S11301A0CDBF84EC8093BC00ECEBF0E0808188232D
S11301B0ECF78091B900887F883A09F042C0FB01CE
S11301C080819181A281B38189839A83AB83BC832B
S11301D0BA016150710916161706ECF4CE010196A6
S11301E07C014C0F5D1F0BEB10E0ECEBF0E094ECAA
S11301F029EB30E0D7018D917D01D8018C93908358
S113020080818823ECF7D9018C91887F883BE1F4C5
S1130210E416F50679F7FE01E60FF71F8181809356
S1130220BB0084EC8093BC00ECEBF0E0808188237D
S1130230ECF78091B900887F803C49F480E090E03D
S113024008C08FEF9FEF05C08EEF9FEF02C08EEFC7
S11302509FEF28960FB6F894DEBF0FBECDBFDF9197
S1130260CF911F910F91FF90EF900895F894FFCFD5
S9030000FC
